{
  "_format": "hh-sol-artifact-1",
  "contractName": "HogwartsNFT",
  "sourceName": "contracts/HogwartsNFT.sol",
  "abi": [
    {
      "inputs": [],
      "stateMutability": "nonpayable",
      "type": "constructor"
    },
    {
      "anonymous": false,
      "inputs": [
        {
          "indexed": true,
          "internalType": "address",
          "name": "owner",
          "type": "address"
        },
        {
          "indexed": true,
          "internalType": "address",
          "name": "approved",
          "type": "address"
        },
        {
          "indexed": true,
          "internalType": "uint256",
          "name": "tokenId",
          "type": "uint256"
        }
      ],
      "name": "Approval",
      "type": "event"
    },
    {
      "anonymous": false,
      "inputs": [
        {
          "indexed": true,
          "internalType": "address",
          "name": "owner",
          "type": "address"
        },
        {
          "indexed": true,
          "internalType": "address",
          "name": "operator",
          "type": "address"
        },
        {
          "indexed": false,
          "internalType": "bool",
          "name": "approved",
          "type": "bool"
        }
      ],
      "name": "ApprovalForAll",
      "type": "event"
    },
    {
      "anonymous": false,
      "inputs": [
        {
          "indexed": false,
          "internalType": "uint256",
          "name": "house",
          "type": "uint256"
        },
        {
          "indexed": false,
          "internalType": "address",
          "name": "minter",
          "type": "address"
        },
        {
          "indexed": false,
          "internalType": "string",
          "name": "name",
          "type": "string"
        }
      ],
      "name": "NftMinted",
      "type": "event"
    },
    {
      "anonymous": false,
      "inputs": [
        {
          "indexed": true,
          "internalType": "address",
          "name": "previousOwner",
          "type": "address"
        },
        {
          "indexed": true,
          "internalType": "address",
          "name": "newOwner",
          "type": "address"
        }
      ],
      "name": "OwnershipTransferred",
      "type": "event"
    },
    {
      "anonymous": false,
      "inputs": [
        {
          "indexed": true,
          "internalType": "address",
          "name": "from",
          "type": "address"
        },
        {
          "indexed": true,
          "internalType": "address",
          "name": "to",
          "type": "address"
        },
        {
          "indexed": true,
          "internalType": "uint256",
          "name": "tokenId",
          "type": "uint256"
        }
      ],
      "name": "Transfer",
      "type": "event"
    },
    {
      "inputs": [
        {
          "internalType": "address",
          "name": "to",
          "type": "address"
        },
        {
          "internalType": "uint256",
          "name": "tokenId",
          "type": "uint256"
        }
      ],
      "name": "approve",
      "outputs": [],
      "stateMutability": "nonpayable",
      "type": "function"
    },
    {
      "inputs": [
        {
          "internalType": "address",
          "name": "owner",
          "type": "address"
        }
      ],
      "name": "balanceOf",
      "outputs": [
        {
          "internalType": "uint256",
          "name": "",
          "type": "uint256"
        }
      ],
      "stateMutability": "view",
      "type": "function"
    },
    {
      "inputs": [
        {
          "internalType": "uint256",
          "name": "tokenId",
          "type": "uint256"
        }
      ],
      "name": "getApproved",
      "outputs": [
        {
          "internalType": "address",
          "name": "",
          "type": "address"
        }
      ],
      "stateMutability": "view",
      "type": "function"
    },
    {
      "inputs": [
        {
          "internalType": "address",
          "name": "_user",
          "type": "address"
        }
      ],
      "name": "getHouseIndex",
      "outputs": [
        {
          "internalType": "uint256",
          "name": "",
          "type": "uint256"
        }
      ],
      "stateMutability": "view",
      "type": "function"
    },
    {
      "inputs": [
        {
          "internalType": "address",
          "name": "",
          "type": "address"
        }
      ],
      "name": "hasMinted",
      "outputs": [
        {
          "internalType": "bool",
          "name": "",
          "type": "bool"
        }
      ],
      "stateMutability": "view",
      "type": "function"
    },
    {
      "inputs": [
        {
          "internalType": "address",
          "name": "_user",
          "type": "address"
        }
      ],
      "name": "hasMintedNFT",
      "outputs": [
        {
          "internalType": "bool",
          "name": "",
          "type": "bool"
        }
      ],
      "stateMutability": "view",
      "type": "function"
    },
    {
      "inputs": [
        {
          "internalType": "address",
          "name": "owner",
          "type": "address"
        },
        {
          "internalType": "address",
          "name": "operator",
          "type": "address"
        }
      ],
      "name": "isApprovedForAll",
      "outputs": [
        {
          "internalType": "bool",
          "name": "",
          "type": "bool"
        }
      ],
      "stateMutability": "view",
      "type": "function"
    },
    {
      "inputs": [
        {
          "internalType": "address",
          "name": "recipient",
          "type": "address"
        },
        {
          "internalType": "uint256",
          "name": "house",
          "type": "uint256"
        },
        {
          "internalType": "string",
          "name": "name",
          "type": "string"
        }
      ],
      "name": "mintNFT",
      "outputs": [],
      "stateMutability": "nonpayable",
      "type": "function"
    },
    {
      "inputs": [],
      "name": "name",
      "outputs": [
        {
          "internalType": "string",
          "name": "",
          "type": "string"
        }
      ],
      "stateMutability": "view",
      "type": "function"
    },
    {
      "inputs": [],
      "name": "owner",
      "outputs": [
        {
          "internalType": "address",
          "name": "",
          "type": "address"
        }
      ],
      "stateMutability": "view",
      "type": "function"
    },
    {
      "inputs": [
        {
          "internalType": "uint256",
          "name": "tokenId",
          "type": "uint256"
        }
      ],
      "name": "ownerOf",
      "outputs": [
        {
          "internalType": "address",
          "name": "",
          "type": "address"
        }
      ],
      "stateMutability": "view",
      "type": "function"
    },
    {
      "inputs": [],
      "name": "renounceOwnership",
      "outputs": [],
      "stateMutability": "nonpayable",
      "type": "function"
    },
    {
      "inputs": [
        {
          "internalType": "address",
          "name": "",
          "type": "address"
        }
      ],
      "name": "s_addressToHouse",
      "outputs": [
        {
          "internalType": "uint256",
          "name": "",
          "type": "uint256"
        }
      ],
      "stateMutability": "view",
      "type": "function"
    },
    {
      "inputs": [
        {
          "internalType": "address",
          "name": "",
          "type": "address"
        }
      ],
      "name": "s_addressToName",
      "outputs": [
        {
          "internalType": "string",
          "name": "",
          "type": "string"
        }
      ],
      "stateMutability": "view",
      "type": "function"
    },
    {
      "inputs": [
        {
          "internalType": "uint256",
          "name": "",
          "type": "uint256"
        }
      ],
      "name": "s_requestIdToSender",
      "outputs": [
        {
          "internalType": "address",
          "name": "",
          "type": "address"
        }
      ],
      "stateMutability": "view",
      "type": "function"
    },
    {
      "inputs": [
        {
          "internalType": "address",
          "name": "from",
          "type": "address"
        },
        {
          "internalType": "address",
          "name": "to",
          "type": "address"
        },
        {
          "internalType": "uint256",
          "name": "tokenId",
          "type": "uint256"
        }
      ],
      "name": "safeTransferFrom",
      "outputs": [],
      "stateMutability": "nonpayable",
      "type": "function"
    },
    {
      "inputs": [
        {
          "internalType": "address",
          "name": "from",
          "type": "address"
        },
        {
          "internalType": "address",
          "name": "to",
          "type": "address"
        },
        {
          "internalType": "uint256",
          "name": "tokenId",
          "type": "uint256"
        },
        {
          "internalType": "bytes",
          "name": "_data",
          "type": "bytes"
        }
      ],
      "name": "safeTransferFrom",
      "outputs": [],
      "stateMutability": "nonpayable",
      "type": "function"
    },
    {
      "inputs": [
        {
          "internalType": "address",
          "name": "operator",
          "type": "address"
        },
        {
          "internalType": "bool",
          "name": "approved",
          "type": "bool"
        }
      ],
      "name": "setApprovalForAll",
      "outputs": [],
      "stateMutability": "nonpayable",
      "type": "function"
    },
    {
      "inputs": [
        {
          "internalType": "bytes4",
          "name": "interfaceId",
          "type": "bytes4"
        }
      ],
      "name": "supportsInterface",
      "outputs": [
        {
          "internalType": "bool",
          "name": "",
          "type": "bool"
        }
      ],
      "stateMutability": "view",
      "type": "function"
    },
    {
      "inputs": [],
      "name": "symbol",
      "outputs": [
        {
          "internalType": "string",
          "name": "",
          "type": "string"
        }
      ],
      "stateMutability": "view",
      "type": "function"
    },
    {
      "inputs": [
        {
          "internalType": "uint256",
          "name": "tokenId",
          "type": "uint256"
        }
      ],
      "name": "tokenURI",
      "outputs": [
        {
          "internalType": "string",
          "name": "",
          "type": "string"
        }
      ],
      "stateMutability": "view",
      "type": "function"
    },
    {
      "inputs": [
        {
          "internalType": "address",
          "name": "from",
          "type": "address"
        },
        {
          "internalType": "address",
          "name": "to",
          "type": "address"
        },
        {
          "internalType": "uint256",
          "name": "tokenId",
          "type": "uint256"
        }
      ],
      "name": "transferFrom",
      "outputs": [],
      "stateMutability": "nonpayable",
      "type": "function"
    },
    {
      "inputs": [
        {
          "internalType": "address",
          "name": "newOwner",
          "type": "address"
        }
      ],
      "name": "transferOwnership",
      "outputs": [],
      "stateMutability": "nonpayable",
      "type": "function"
    }
  ],
  "bytecode": "0x6101806040526045610100818152608091829190620020516101203981526020016040518060800160405280604581526020016200200c60459139815260200160405180608001604052806044815260200162001fc8604491398152602001604051806080016040528060448152602001620020966044913990526200008a90600d9060046200017b565b503480156200009857600080fd5b50604080518082018252600c81526b121bd9ddd85c9d1cc813919560a21b602080830191825283518085019094526002845261048560f41b908401528151919291620000e791600091620001df565b508051620000fd906001906020840190620001df565b5050506200011a620001146200012560201b60201c565b62000129565b6000600c5562000321565b3390565b600780546001600160a01b038381166001600160a01b0319831681179093556040519116919082907f8be0079c531659141344cd1fd0a4f28419497f9722a3daafe3b4186f6b6457e090600090a35050565b828054828255906000526020600020908101928215620001cd579160200282015b82811115620001cd5782518051620001bc918491602090910190620001df565b50916020019190600101906200019c565b50620001db9291506200026a565b5090565b828054620001ed90620002e4565b90600052602060002090601f0160209004810192826200021157600085556200025c565b82601f106200022c57805160ff19168380011785556200025c565b828001600101855582156200025c579182015b828111156200025c5782518255916020019190600101906200023f565b50620001db9291506200028b565b80821115620001db576000620002818282620002a2565b506001016200026a565b5b80821115620001db57600081556001016200028c565b508054620002b090620002e4565b6000825580601f10620002c1575050565b601f016020900490600052602060002090810190620002e191906200028b565b50565b600181811c90821680620002f957607f821691505b602082108114156200031b57634e487b7160e01b600052602260045260246000fd5b50919050565b611c9780620003316000396000f3fe608060405234801561001057600080fd5b506004361061014d5760003560e01c806370a08231116100c3578063b88d4fde1161007c578063b88d4fde146102f8578063c87b56dd1461030b578063cd6542321461031e578063e28cb25a1461033e578063e985e9c51461036a578063f2fde38b146103a657600080fd5b806370a0823114610288578063715018a61461029b5780638da5cb5b146102a357806395d89b41146102b4578063a22cb465146102bc578063a36f573b146102cf57600080fd5b806323b872dd1161011557806323b872dd146101e257806333975f94146101f557806338e21cce1461020857806342842e0e1461022b5780634a4b36c21461023e5780636352211e1461027557600080fd5b806301ffc9a71461015257806306fdde031461017a578063081812fc1461018f578063095ea7b3146101ba5780631e576912146101cf575b600080fd5b6101656101603660046116be565b6103b9565b60405190151581526020015b60405180910390f35b61018261040b565b6040516101719190611733565b6101a261019d366004611746565b61049d565b6040516001600160a01b039091168152602001610171565b6101cd6101c836600461177b565b61052a565b005b6101cd6101dd366004611831565b610640565b6101cd6101f036600461189c565b61084f565b6101826102033660046118d8565b610880565b6101656102163660046118d8565b600a6020526000908152604090205460ff1681565b6101cd61023936600461189c565b61091a565b61026761024c3660046118d8565b6001600160a01b031660009081526009602052604090205490565b604051908152602001610171565b6101a2610283366004611746565b610935565b6102676102963660046118d8565b6109ac565b6101cd610a33565b6007546001600160a01b03166101a2565b610182610a69565b6101cd6102ca3660046118f3565b610a78565b6101a26102dd366004611746565b6008602052600090815260409020546001600160a01b031681565b6101cd61030636600461192f565b610b3d565b610182610319366004611746565b610b75565b61026761032c3660046118d8565b60096020526000908152604090205481565b61016561034c3660046118d8565b6001600160a01b03166000908152600a602052604090205460ff1690565b6101656103783660046119ab565b6001600160a01b03918216600090815260056020908152604080832093909416825291909152205460ff1690565b6101cd6103b43660046118d8565b610cec565b60006001600160e01b031982166380ac58cd60e01b14806103ea57506001600160e01b03198216635b5e139f60e01b145b8061040557506301ffc9a760e01b6001600160e01b03198316145b92915050565b60606000805461041a906119de565b80601f0160208091040260200160405190810160405280929190818152602001828054610446906119de565b80156104935780601f1061046857610100808354040283529160200191610493565b820191906000526020600020905b81548152906001019060200180831161047657829003601f168201915b5050505050905090565b60006104a882610d87565b61050e5760405162461bcd60e51b815260206004820152602c60248201527f4552433732313a20617070726f76656420717565727920666f72206e6f6e657860448201526b34b9ba32b73a103a37b5b2b760a11b60648201526084015b60405180910390fd5b506000908152600460205260409020546001600160a01b031690565b600061053582610935565b9050806001600160a01b0316836001600160a01b031614156105a35760405162461bcd60e51b815260206004820152602160248201527f4552433732313a20617070726f76616c20746f2063757272656e74206f776e656044820152603960f91b6064820152608401610505565b336001600160a01b03821614806105bf57506105bf8133610378565b6106315760405162461bcd60e51b815260206004820152603860248201527f4552433732313a20617070726f76652063616c6c6572206973206e6f74206f7760448201527f6e6572206e6f7220617070726f76656420666f7220616c6c00000000000000006064820152608401610505565b61063b8383610da4565b505050565b6007546001600160a01b0316331461066a5760405162461bcd60e51b815260040161050590611a19565b6001600160a01b0383166000908152600a602052604090205460ff16156106e25760405162461bcd60e51b815260206004820152602660248201527f596f75206861766520616c7265616479206d696e74656420796f757220686f756044820152651cd94813919560d21b6064820152608401610505565b600c546106ef8482610e12565b61079e81600d858154811061070657610706611a4e565b90600052602060002001805461071b906119de565b80601f0160208091040260200160405190810160405280929190818152602001828054610747906119de565b80156107945780601f1061076957610100808354040283529160200191610794565b820191906000526020600020905b81548152906001019060200180831161077757829003601f168201915b5050505050610e30565b6001600160a01b0384166000908152600960209081526040808320869055600b825290912083516107d19285019061160f565b506001600c60008282546107e59190611a7a565b90915550506001600160a01b0384166000908152600a602052604090819020805460ff19166001179055517ffe281bcdb072dfbddfafb1763ee8ba9b91ba790715c617af593493fe865ac7379061084190859087908690611a92565b60405180910390a150505050565b6108593382610ebb565b6108755760405162461bcd60e51b815260040161050590611ac5565b61063b838383610fa1565b600b6020526000908152604090208054610899906119de565b80601f01602080910402602001604051908101604052809291908181526020018280546108c5906119de565b80156109125780601f106108e757610100808354040283529160200191610912565b820191906000526020600020905b8154815290600101906020018083116108f557829003601f168201915b505050505081565b61063b83838360405180602001604052806000815250610b3d565b6000818152600260205260408120546001600160a01b0316806104055760405162461bcd60e51b815260206004820152602960248201527f4552433732313a206f776e657220717565727920666f72206e6f6e657869737460448201526832b73a103a37b5b2b760b91b6064820152608401610505565b60006001600160a01b038216610a175760405162461bcd60e51b815260206004820152602a60248201527f4552433732313a2062616c616e636520717565727920666f7220746865207a65604482015269726f206164647265737360b01b6064820152608401610505565b506001600160a01b031660009081526003602052604090205490565b6007546001600160a01b03163314610a5d5760405162461bcd60e51b815260040161050590611a19565b610a676000611141565b565b60606001805461041a906119de565b6001600160a01b038216331415610ad15760405162461bcd60e51b815260206004820152601960248201527f4552433732313a20617070726f766520746f2063616c6c6572000000000000006044820152606401610505565b3360008181526005602090815260408083206001600160a01b03871680855290835292819020805460ff191686151590811790915590519081529192917f17307eab39ab6107e8899845ad3d59bd9653f200f220920489ca2b5937696c31910160405180910390a35050565b610b473383610ebb565b610b635760405162461bcd60e51b815260040161050590611ac5565b610b6f84848484611193565b50505050565b6060610b8082610d87565b610be65760405162461bcd60e51b815260206004820152603160248201527f45524337323155524953746f726167653a2055524920717565727920666f72206044820152703737b732bc34b9ba32b73a103a37b5b2b760791b6064820152608401610505565b60008281526006602052604081208054610bff906119de565b80601f0160208091040260200160405190810160405280929190818152602001828054610c2b906119de565b8015610c785780601f10610c4d57610100808354040283529160200191610c78565b820191906000526020600020905b815481529060010190602001808311610c5b57829003601f168201915b505050505090506000610c9660408051602081019091526000815290565b9050805160001415610ca9575092915050565b815115610cdb578082604051602001610cc3929190611b16565b60405160208183030381529060405292505050919050565b610ce4846111c6565b949350505050565b6007546001600160a01b03163314610d165760405162461bcd60e51b815260040161050590611a19565b6001600160a01b038116610d7b5760405162461bcd60e51b815260206004820152602660248201527f4f776e61626c653a206e6577206f776e657220697320746865207a65726f206160448201526564647265737360d01b6064820152608401610505565b610d8481611141565b50565b6000908152600260205260409020546001600160a01b0316151590565b600081815260046020526040902080546001600160a01b0319166001600160a01b0384169081179091558190610dd982610935565b6001600160a01b03167f8c5be1e5ebec7d5bd14f71427d1e84f3dd0314c0f7b2291e5b200ac8c7c3b92560405160405180910390a45050565b610e2c82826040518060200160405280600081525061129e565b5050565b610e3982610d87565b610e9c5760405162461bcd60e51b815260206004820152602e60248201527f45524337323155524953746f726167653a2055524920736574206f66206e6f6e60448201526d32bc34b9ba32b73a103a37b5b2b760911b6064820152608401610505565b6000828152600660209081526040909120825161063b9284019061160f565b6000610ec682610d87565b610f275760405162461bcd60e51b815260206004820152602c60248201527f4552433732313a206f70657261746f7220717565727920666f72206e6f6e657860448201526b34b9ba32b73a103a37b5b2b760a11b6064820152608401610505565b6000610f3283610935565b9050806001600160a01b0316846001600160a01b03161480610f6d5750836001600160a01b0316610f628461049d565b6001600160a01b0316145b80610ce457506001600160a01b0380821660009081526005602090815260408083209388168352929052205460ff16610ce4565b826001600160a01b0316610fb482610935565b6001600160a01b03161461101c5760405162461bcd60e51b815260206004820152602960248201527f4552433732313a207472616e73666572206f6620746f6b656e2074686174206960448201526839903737ba1037bbb760b91b6064820152608401610505565b6001600160a01b03821661107e5760405162461bcd60e51b8152602060048201526024808201527f4552433732313a207472616e7366657220746f20746865207a65726f206164646044820152637265737360e01b6064820152608401610505565b611089600082610da4565b6001600160a01b03831660009081526003602052604081208054600192906110b2908490611b45565b90915550506001600160a01b03821660009081526003602052604081208054600192906110e0908490611a7a565b909155505060008181526002602052604080822080546001600160a01b0319166001600160a01b0386811691821790925591518493918716917fddf252ad1be2c89b69c2b068fc378daa952ba7f163c4a11628f55a4df523b3ef91a4505050565b600780546001600160a01b038381166001600160a01b0319831681179093556040519116919082907f8be0079c531659141344cd1fd0a4f28419497f9722a3daafe3b4186f6b6457e090600090a35050565b61119e848484610fa1565b6111aa848484846112d1565b610b6f5760405162461bcd60e51b815260040161050590611b5c565b60606111d182610d87565b6112355760405162461bcd60e51b815260206004820152602f60248201527f4552433732314d657461646174613a2055524920717565727920666f72206e6f60448201526e3732bc34b9ba32b73a103a37b5b2b760891b6064820152608401610505565b600061124c60408051602081019091526000815290565b9050600081511161126c5760405180602001604052806000815250611297565b80611276846113de565b604051602001611287929190611b16565b6040516020818303038152906040525b9392505050565b6112a883836114dc565b6112b560008484846112d1565b61063b5760405162461bcd60e51b815260040161050590611b5c565b60006001600160a01b0384163b156113d357604051630a85bd0160e11b81526001600160a01b0385169063150b7a0290611315903390899088908890600401611bae565b602060405180830381600087803b15801561132f57600080fd5b505af192505050801561135f575060408051601f3d908101601f1916820190925261135c91810190611beb565b60015b6113b9573d80801561138d576040519150601f19603f3d011682016040523d82523d6000602084013e611392565b606091505b5080516113b15760405162461bcd60e51b815260040161050590611b5c565b805181602001fd5b6001600160e01b031916630a85bd0160e11b149050610ce4565b506001949350505050565b6060816114025750506040805180820190915260018152600360fc1b602082015290565b8160005b811561142c578061141681611c08565b91506114259050600a83611c39565b9150611406565b60008167ffffffffffffffff811115611447576114476117a5565b6040519080825280601f01601f191660200182016040528015611471576020820181803683370190505b5090505b8415610ce457611486600183611b45565b9150611493600a86611c4d565b61149e906030611a7a565b60f81b8183815181106114b3576114b3611a4e565b60200101906001600160f81b031916908160001a9053506114d5600a86611c39565b9450611475565b6001600160a01b0382166115325760405162461bcd60e51b815260206004820181905260248201527f4552433732313a206d696e7420746f20746865207a65726f20616464726573736044820152606401610505565b61153b81610d87565b156115885760405162461bcd60e51b815260206004820152601c60248201527f4552433732313a20746f6b656e20616c7265616479206d696e746564000000006044820152606401610505565b6001600160a01b03821660009081526003602052604081208054600192906115b1908490611a7a565b909155505060008181526002602052604080822080546001600160a01b0319166001600160a01b03861690811790915590518392907fddf252ad1be2c89b69c2b068fc378daa952ba7f163c4a11628f55a4df523b3ef908290a45050565b82805461161b906119de565b90600052602060002090601f01602090048101928261163d5760008555611683565b82601f1061165657805160ff1916838001178555611683565b82800160010185558215611683579182015b82811115611683578251825591602001919060010190611668565b5061168f929150611693565b5090565b5b8082111561168f5760008155600101611694565b6001600160e01b031981168114610d8457600080fd5b6000602082840312156116d057600080fd5b8135611297816116a8565b60005b838110156116f65781810151838201526020016116de565b83811115610b6f5750506000910152565b6000815180845261171f8160208601602086016116db565b601f01601f19169290920160200192915050565b6020815260006112976020830184611707565b60006020828403121561175857600080fd5b5035919050565b80356001600160a01b038116811461177657600080fd5b919050565b6000806040838503121561178e57600080fd5b6117978361175f565b946020939093013593505050565b634e487b7160e01b600052604160045260246000fd5b600067ffffffffffffffff808411156117d6576117d66117a5565b604051601f8501601f19908116603f011681019082821181831017156117fe576117fe6117a5565b8160405280935085815286868601111561181757600080fd5b858560208301376000602087830101525050509392505050565b60008060006060848603121561184657600080fd5b61184f8461175f565b925060208401359150604084013567ffffffffffffffff81111561187257600080fd5b8401601f8101861361188357600080fd5b611892868235602084016117bb565b9150509250925092565b6000806000606084860312156118b157600080fd5b6118ba8461175f565b92506118c86020850161175f565b9150604084013590509250925092565b6000602082840312156118ea57600080fd5b6112978261175f565b6000806040838503121561190657600080fd5b61190f8361175f565b91506020830135801515811461192457600080fd5b809150509250929050565b6000806000806080858703121561194557600080fd5b61194e8561175f565b935061195c6020860161175f565b925060408501359150606085013567ffffffffffffffff81111561197f57600080fd5b8501601f8101871361199057600080fd5b61199f878235602084016117bb565b91505092959194509250565b600080604083850312156119be57600080fd5b6119c78361175f565b91506119d56020840161175f565b90509250929050565b600181811c908216806119f257607f821691505b60208210811415611a1357634e487b7160e01b600052602260045260246000fd5b50919050565b6020808252818101527f4f776e61626c653a2063616c6c6572206973206e6f7420746865206f776e6572604082015260600190565b634e487b7160e01b600052603260045260246000fd5b634e487b7160e01b600052601160045260246000fd5b60008219821115611a8d57611a8d611a64565b500190565b8381526001600160a01b0383166020820152606060408201819052600090611abc90830184611707565b95945050505050565b60208082526031908201527f4552433732313a207472616e736665722063616c6c6572206973206e6f74206f6040820152701ddb995c881b9bdc88185c1c1c9bdd9959607a1b606082015260800190565b60008351611b288184602088016116db565b835190830190611b3c8183602088016116db565b01949350505050565b600082821015611b5757611b57611a64565b500390565b60208082526032908201527f4552433732313a207472616e7366657220746f206e6f6e20455243373231526560408201527131b2b4bb32b91034b6b83632b6b2b73a32b960711b606082015260800190565b6001600160a01b0385811682528416602082015260408101839052608060608201819052600090611be190830184611707565b9695505050505050565b600060208284031215611bfd57600080fd5b8151611297816116a8565b6000600019821415611c1c57611c1c611a64565b5060010190565b634e487b7160e01b600052601260045260246000fd5b600082611c4857611c48611c23565b500490565b600082611c5c57611c5c611c23565b50069056fea264697066735822122034869813b9c7684ae2aaeb926572ebf05914be9267bade5186e05e5c98771c6464736f6c63430008080033697066733a2f2f516d586a613251424b734e5739716e77396b4b66636d3235724a546f6d7741564a557258656b59464a6e567762672f526176656e636c61772e6a736f6e697066733a2f2f516d586a613251424b734e5739716e77396b4b66636d3235724a546f6d7741564a557258656b59464a6e567762672f487566666c65707566662e6a736f6e697066733a2f2f516d586a613251424b734e5739716e77396b4b66636d3235724a546f6d7741564a557258656b59464a6e567762672f4772796666696e646f722e6a736f6e697066733a2f2f516d586a613251424b734e5739716e77396b4b66636d3235724a546f6d7741564a557258656b59464a6e567762672f536c7974686572696e2e6a736f6e",
  "linkReferences": {},
  "deployedLinkReferences": {}
}